{
  "contractName": "TheMostAmazingContract",
  "abi": [
    {
      "anonymous": false,
      "inputs": [
        {
          "indexed": false,
          "internalType": "string",
          "name": "sender",
          "type": "string"
        },
        {
          "indexed": false,
          "internalType": "string",
          "name": "receiver",
          "type": "string"
        },
        {
          "indexed": false,
          "internalType": "uint32",
          "name": "amount",
          "type": "uint32"
        }
      ],
      "name": "Transfer",
      "type": "event"
    },
    {
      "inputs": [
        {
          "internalType": "string",
          "name": "",
          "type": "string"
        }
      ],
      "name": "balances",
      "outputs": [
        {
          "internalType": "uint32",
          "name": "",
          "type": "uint32"
        }
      ],
      "stateMutability": "view",
      "type": "function"
    },
    {
      "inputs": [
        {
          "internalType": "string",
          "name": "owner",
          "type": "string"
        },
        {
          "internalType": "uint32",
          "name": "amount",
          "type": "uint32"
        }
      ],
      "name": "deposit",
      "outputs": [],
      "stateMutability": "nonpayable",
      "type": "function"
    },
    {
      "inputs": [
        {
          "internalType": "string",
          "name": "sender",
          "type": "string"
        },
        {
          "internalType": "string",
          "name": "receiver",
          "type": "string"
        },
        {
          "internalType": "uint32",
          "name": "amount",
          "type": "uint32"
        }
      ],
      "name": "transferBalance",
      "outputs": [],
      "stateMutability": "nonpayable",
      "type": "function"
    }
  ],
  "bytecode": "0x608060405234801561000f575f80fd5b506107ef8061001d5f395ff3fe608060405234801561000f575f80fd5b506004361061003f575f3560e01c80632afd97a414610043578063b2bf562814610073578063be9295661461008f575b5f80fd5b61005d600480360381019061005891906103f9565b6100ab565b60405161006a919061045e565b60405180910390f35b61008d600480360381019061008891906104a1565b6100e2565b005b6100a960048036038101906100a49190610529565b61024f565b005b5f818051602081018201805184825260208301602085012081835280955050505050505f915054906101000a900463ffffffff1681565b8063ffffffff165f846040516100f891906105ef565b90815260200160405180910390205f9054906101000a900463ffffffff1663ffffffff16101561015d576040517f08c379a000000000000000000000000000000000000000000000000000000000815260040161015490610685565b60405180910390fd5b805f8460405161016d91906105ef565b90815260200160405180910390205f8282829054906101000a900463ffffffff1661019891906106d0565b92506101000a81548163ffffffff021916908363ffffffff160217905550805f836040516101c691906105ef565b90815260200160405180910390205f8282829054906101000a900463ffffffff166101f19190610707565b92506101000a81548163ffffffff021916908363ffffffff1602179055507f865d24ba4462ca9747fc7d438291edf357f81e8ff0ccec91624fa222db24e82e83838360405161024293929190610776565b60405180910390a1505050565b805f8360405161025f91906105ef565b90815260200160405180910390205f8282829054906101000a900463ffffffff1661028a9190610707565b92506101000a81548163ffffffff021916908363ffffffff1602179055505050565b5f604051905090565b5f80fd5b5f80fd5b5f80fd5b5f80fd5b5f601f19601f8301169050919050565b7f4e487b71000000000000000000000000000000000000000000000000000000005f52604160045260245ffd5b61030b826102c5565b810181811067ffffffffffffffff8211171561032a576103296102d5565b5b80604052505050565b5f61033c6102ac565b90506103488282610302565b919050565b5f67ffffffffffffffff821115610367576103666102d5565b5b610370826102c5565b9050602081019050919050565b828183375f83830152505050565b5f61039d6103988461034d565b610333565b9050828152602081018484840111156103b9576103b86102c1565b5b6103c484828561037d565b509392505050565b5f82601f8301126103e0576103df6102bd565b5b81356103f084826020860161038b565b91505092915050565b5f6020828403121561040e5761040d6102b5565b5b5f82013567ffffffffffffffff81111561042b5761042a6102b9565b5b610437848285016103cc565b91505092915050565b5f63ffffffff82169050919050565b61045881610440565b82525050565b5f6020820190506104715f83018461044f565b92915050565b61048081610440565b811461048a575f80fd5b50565b5f8135905061049b81610477565b92915050565b5f805f606084860312156104b8576104b76102b5565b5b5f84013567ffffffffffffffff8111156104d5576104d46102b9565b5b6104e1868287016103cc565b935050602084013567ffffffffffffffff811115610502576105016102b9565b5b61050e868287016103cc565b925050604061051f8682870161048d565b9150509250925092565b5f806040838503121561053f5761053e6102b5565b5b5f83013567ffffffffffffffff81111561055c5761055b6102b9565b5b610568858286016103cc565b92505060206105798582860161048d565b9150509250929050565b5f81519050919050565b5f81905092915050565b5f5b838110156105b4578082015181840152602081019050610599565b5f8484015250505050565b5f6105c982610583565b6105d3818561058d565b93506105e3818560208601610597565b80840191505092915050565b5f6105fa82846105bf565b915081905092915050565b5f82825260208201905092915050565b7f596f752063616e27742073656e64207768617420796f7520646f6e27742068615f8201527f76652e2e2e206475680000000000000000000000000000000000000000000000602082015250565b5f61066f602983610605565b915061067a82610615565b604082019050919050565b5f6020820190508181035f83015261069c81610663565b9050919050565b7f4e487b71000000000000000000000000000000000000000000000000000000005f52601160045260245ffd5b5f6106da82610440565b91506106e583610440565b9250828203905063ffffffff811115610701576107006106a3565b5b92915050565b5f61071182610440565b915061071c83610440565b9250828201905063ffffffff811115610738576107376106a3565b5b92915050565b5f61074882610583565b6107528185610605565b9350610762818560208601610597565b61076b816102c5565b840191505092915050565b5f6060820190508181035f83015261078e818661073e565b905081810360208301526107a2818561073e565b90506107b1604083018461044f565b94935050505056fea2646970667358221220319a37ffd1391a2f369afecadf8490443c02161e87e895cc4f19221cc662ba6464736f6c63430008150033",
  "immutableReferences": {},
  "source": "pragma solidity >=0.8.19;\n\ncontract TheMostAmazingContract {\n    // at some point I'd like to use wallets to see if that's even a good approach but not using yet\n    struct Wallet {\n        string owner;\n        uint32 eth_balance;\n    }\n\n    // get balances from owner\n    // review why we use int32\n    mapping(string => uint32) public balances;\n\n    // Need to use events because ???\n    event Transfer(string sender, string receiver, uint32 amount);\n\n    // Not how real transfers work... duh\n    // we say it's public since we want anyone to be able to call it\n    // Will want to implement owner contract to test and see if we can limit this function later\n    function deposit(string memory owner, uint32 amount) public {\n        balances[owner] += amount;\n    }\n\n    function transferBalance(\n        string memory sender,\n        string memory receiver,\n        uint32 amount\n    ) public {\n        // Do they have the money\n        require(\n            balances[sender] >= amount,\n            \"You can't send what you don't have... duh\"\n        );\n\n        balances[sender] -= amount;\n        balances[receiver] += amount;\n\n        emit Transfer(sender, receiver, amount);\n    }\n}\n",
  "sourcePath": "/Users/connorjohnston/Projects/Crypto/rust-evm-simulator/solidity/contracts/theMostAmazingContract.sol",
  "compiler": {
    "name": "solc",
    "version": "0.8.21+commit.d9974bed.Emscripten.clang"
  },
  "schemaVersion": "3.4.16",
  "updatedAt": "2024-03-12T03:28:10.545Z",
  "devdoc": {
    "kind": "dev",
    "methods": {},
    "version": 1
  },
  "userdoc": {
    "kind": "user",
    "methods": {},
    "version": 1
  }
}