{
  "contractName": "TheMostAmazingContract",
  "abi": [
    {
      "inputs": [],
      "stateMutability": "nonpayable",
      "type": "constructor"
    },
    {
      "anonymous": false,
      "inputs": [
        {
          "indexed": false,
          "internalType": "string",
          "name": "sender",
          "type": "string"
        },
        {
          "indexed": false,
          "internalType": "string",
          "name": "receiver",
          "type": "string"
        },
        {
          "indexed": false,
          "internalType": "uint32",
          "name": "amount",
          "type": "uint32"
        }
      ],
      "name": "Transfer",
      "type": "event"
    },
    {
      "inputs": [
        {
          "internalType": "string",
          "name": "",
          "type": "string"
        }
      ],
      "name": "balances",
      "outputs": [
        {
          "internalType": "uint32",
          "name": "",
          "type": "uint32"
        }
      ],
      "stateMutability": "view",
      "type": "function"
    },
    {
      "inputs": [],
      "name": "owner",
      "outputs": [
        {
          "internalType": "address",
          "name": "",
          "type": "address"
        }
      ],
      "stateMutability": "view",
      "type": "function"
    },
    {
      "inputs": [
        {
          "internalType": "string",
          "name": "act",
          "type": "string"
        },
        {
          "internalType": "uint32",
          "name": "amount",
          "type": "uint32"
        }
      ],
      "name": "deposit",
      "outputs": [],
      "stateMutability": "nonpayable",
      "type": "function"
    },
    {
      "inputs": [
        {
          "internalType": "string",
          "name": "sender",
          "type": "string"
        },
        {
          "internalType": "string",
          "name": "receiver",
          "type": "string"
        },
        {
          "internalType": "uint32",
          "name": "amount",
          "type": "uint32"
        }
      ],
      "name": "transferBalance",
      "outputs": [],
      "stateMutability": "nonpayable",
      "type": "function"
    }
  ],
  "bytecode": "0x608060405234801561000f575f80fd5b50335f806101000a81548173ffffffffffffffffffffffffffffffffffffffff021916908373ffffffffffffffffffffffffffffffffffffffff1602179055506103e86001604051610060906100e4565b90815260200160405180910390205f6101000a81548163ffffffff021916908363ffffffff1602179055506100f8565b5f81905092915050565b7f4f776e65720000000000000000000000000000000000000000000000000000005f82015250565b5f6100ce600583610090565b91506100d98261009a565b600582019050919050565b5f6100ee826100c2565b9150819050919050565b610898806101055f395ff3fe608060405234801561000f575f80fd5b506004361061004a575f3560e01c80632afd97a41461004e5780638da5cb5b1461007e578063b2bf56281461009c578063be929566146100b8575b5f80fd5b6100686004803603810190610063919061044a565b6100d4565b60405161007591906104af565b60405180910390f35b61008661010c565b6040516100939190610507565b60405180910390f35b6100b660048036038101906100b1919061054a565b61012f565b005b6100d260048036038101906100cd91906105d2565b61029f565b005b6001818051602081018201805184825260208301602085012081835280955050505050505f915054906101000a900463ffffffff1681565b5f8054906101000a900473ffffffffffffffffffffffffffffffffffffffff1681565b8063ffffffff166001846040516101469190610698565b90815260200160405180910390205f9054906101000a900463ffffffff1663ffffffff1610156101ab576040517f08c379a00000000000000000000000000000000000000000000000000000000081526004016101a29061072e565b60405180910390fd5b806001846040516101bc9190610698565b90815260200160405180910390205f8282829054906101000a900463ffffffff166101e79190610779565b92506101000a81548163ffffffff021916908363ffffffff160217905550806001836040516102169190610698565b90815260200160405180910390205f8282829054906101000a900463ffffffff1661024191906107b0565b92506101000a81548163ffffffff021916908363ffffffff1602179055507f865d24ba4462ca9747fc7d438291edf357f81e8ff0ccec91624fa222db24e82e8383836040516102929392919061081f565b60405180910390a1505050565b806001836040516102b09190610698565b90815260200160405180910390205f8282829054906101000a900463ffffffff166102db91906107b0565b92506101000a81548163ffffffff021916908363ffffffff1602179055505050565b5f604051905090565b5f80fd5b5f80fd5b5f80fd5b5f80fd5b5f601f19601f8301169050919050565b7f4e487b71000000000000000000000000000000000000000000000000000000005f52604160045260245ffd5b61035c82610316565b810181811067ffffffffffffffff8211171561037b5761037a610326565b5b80604052505050565b5f61038d6102fd565b90506103998282610353565b919050565b5f67ffffffffffffffff8211156103b8576103b7610326565b5b6103c182610316565b9050602081019050919050565b828183375f83830152505050565b5f6103ee6103e98461039e565b610384565b90508281526020810184848401111561040a57610409610312565b5b6104158482856103ce565b509392505050565b5f82601f8301126104315761043061030e565b5b81356104418482602086016103dc565b91505092915050565b5f6020828403121561045f5761045e610306565b5b5f82013567ffffffffffffffff81111561047c5761047b61030a565b5b6104888482850161041d565b91505092915050565b5f63ffffffff82169050919050565b6104a981610491565b82525050565b5f6020820190506104c25f8301846104a0565b92915050565b5f73ffffffffffffffffffffffffffffffffffffffff82169050919050565b5f6104f1826104c8565b9050919050565b610501816104e7565b82525050565b5f60208201905061051a5f8301846104f8565b92915050565b61052981610491565b8114610533575f80fd5b50565b5f8135905061054481610520565b92915050565b5f805f6060848603121561056157610560610306565b5b5f84013567ffffffffffffffff81111561057e5761057d61030a565b5b61058a8682870161041d565b935050602084013567ffffffffffffffff8111156105ab576105aa61030a565b5b6105b78682870161041d565b92505060406105c886828701610536565b9150509250925092565b5f80604083850312156105e8576105e7610306565b5b5f83013567ffffffffffffffff8111156106055761060461030a565b5b6106118582860161041d565b925050602061062285828601610536565b9150509250929050565b5f81519050919050565b5f81905092915050565b5f5b8381101561065d578082015181840152602081019050610642565b5f8484015250505050565b5f6106728261062c565b61067c8185610636565b935061068c818560208601610640565b80840191505092915050565b5f6106a38284610668565b915081905092915050565b5f82825260208201905092915050565b7f596f752063616e27742073656e64207768617420796f7520646f6e27742068615f8201527f76652e2e2e206475680000000000000000000000000000000000000000000000602082015250565b5f6107186029836106ae565b9150610723826106be565b604082019050919050565b5f6020820190508181035f8301526107458161070c565b9050919050565b7f4e487b71000000000000000000000000000000000000000000000000000000005f52601160045260245ffd5b5f61078382610491565b915061078e83610491565b9250828203905063ffffffff8111156107aa576107a961074c565b5b92915050565b5f6107ba82610491565b91506107c583610491565b9250828201905063ffffffff8111156107e1576107e061074c565b5b92915050565b5f6107f18261062c565b6107fb81856106ae565b935061080b818560208601610640565b61081481610316565b840191505092915050565b5f6060820190508181035f83015261083781866107e7565b9050818103602083015261084b81856107e7565b905061085a60408301846104a0565b94935050505056fea2646970667358221220df8f395afbe90f5170fa5af483b37ad958f851601514401bba67de00897391cc64736f6c63430008150033",
  "immutableReferences": {},
  "source": "// SPDX-License-Identifier: MIT\npragma solidity >=0.8.19;\n\ncontract TheMostAmazingContract {\n    address public owner;\n\n    mapping(string => uint32) public balances;\n\n    event Transfer(string sender, string receiver, uint32 amount);\n\n    constructor() {\n        owner = msg.sender;\n        balances[\"Owner\"] = 1000;\n    }\n\n    function deposit(string memory act, uint32 amount) public {\n        balances[act] += amount;\n    }\n\n    function transferBalance(\n        string memory sender,\n        string memory receiver,\n        uint32 amount\n    ) public {\n        require(\n            balances[sender] >= amount,\n            \"You can't send what you don't have... duh\"\n        );\n        balances[sender] -= amount;\n        balances[receiver] += amount;\n        emit Transfer(sender, receiver, amount);\n    }\n}\n",
  "sourcePath": "/Users/connorjohnston/Projects/Crypto/rust-evm-simulator/solidity/contracts/theMostAmazingContract.sol",
  "compiler": {
    "name": "solc",
    "version": "0.8.21+commit.d9974bed.Emscripten.clang"
  },
  "schemaVersion": "3.4.16",
  "updatedAt": "2024-03-13T03:34:26.831Z",
  "devdoc": {
    "kind": "dev",
    "methods": {},
    "version": 1
  },
  "userdoc": {
    "kind": "user",
    "methods": {},
    "version": 1
  }
}